:020000040800F2
:10000000C82E0020990100083B1B0008F5170008C6
:10001000391B0008C5050008A922000800000000DF
:1000200000000000000000000000000001010008C6
:10003000C70500080000000045010008011F000876
:10004000B3010008B3010008B3010008B3010008C0
:10005000B3010008B3010008B3010008B3010008B0
:10006000B3010008B3010008B3010008B3010008A0
:10007000B3010008B3010008B3010008B301000890
:10008000B3010008B3010008B3010008B301000880
:10009000B3010008B3010008B3010008B301000870
:1000A000B30100087D1F0008B3010008B301000878
:1000B000B3010008891F0008B3010008B30100085C
:1000C000B3010008B3010008B3010008B301000840
:1000D000B3010008B3010008B3010008B301000830
:1000E000B3010008B3010008B3010008DFF80CD029
:1000F00000F056FA0048004721250008C82E0020CD
:10010000224B19680868B0E8F00F80F30988BFF344
:100110006F8F4FF0000080F311884EF00D0E704786
:100120000000000006480068006880F3088862B696
:1001300061B6BFF34F8FBFF36F8F00DF00BF00BF0B
:1001400008ED00E0EFF30980BFF36F8F0F4B1A68E3
:1001500020E9F00F106008B54FF0500080F31188CF
:10016000BFF34F8FBFF36F8F02F0D8FD4FF0000049
:1001700080F31188BDE8084019680868B0E8F00FFE
:1001800080F30988BFF36F8F704700BF44000020E1
:10019000EFF3058070470000064880470648004797
:1001A000FEE7FEE7FEE7FEE7FEE7FEE7FEE7FEE727
:1001B000FEE7FEE77B1F0008ED000008202A04DBB5
:1001C000203A21FA02F00021704721FA02F3D040D0
:1001D000C2F12002914008431946704740EA0103EA
:1001E0009B0703D009E008C9121F08C0042AFAD2ED
:1001F00003E011F8013B00F8013B521EF9D27047B1
:10020000D2B201E000F8012B491EFBD27047002258
:10021000F6E710B513460A4604461946FFF7F0FF05
:10022000204610BD2DE9FE4F804681EA0300C00F35
:100230000C46009021F0004123F00045B8EB02008D
:10024000A94105D24046214690461C460B4602462F
:1002500023F00040104347D0270DC7F30A00C3F333
:100260000A510290401A019040286BDAC3F3130040
:1002700040F4801B0098924620B10023D2EB030A81
:1002800063EB0B0B01985946C0F14002504600F059
:1002900008F906460D4650465946019A00F010F9F5
:1002A00010EB08006141002487EA115284EAE773E9
:1002B0001A4340D0009A62B3019A012A4FEA0752CA
:1002C00015DC001B61EB02014FF0004202EA07520D
:1002D000CDE90042001C41F5801132462B4600F06A
:1002E00010F903B0BDE8F08F40462146F9E7001B46
:1002F00061EB0201001C41F5801300185B412018DE
:10030000A2F5001747EB030140EAD570B6196D411D
:1003100011E06D084FEA360645EAC0754FEA07520C
:10032000001B61EB0201001C41F5801149084FEAF6
:1003300030000019514132462B4603B0BDE8F04F62
:1003400000F0D0B80098012240000023D0EB020258
:1003500063EBE073009821464FEAE074B8EB0000CD
:1003600061EB0401E9E783F000435BE781F00041C2
:1003700058E72DE9FE4F81EA030404F0004421F020
:10038000004100944FF0000B23F0004350EA0104B9
:100390005ED052EA03045BD0C3F30A54C1F30A559A
:1003A0002C44A4F2F3340194A0FB0254C1F31301D2
:1003B00041F48011C3F3130343F4801301FB02449F
:1003C00000FB034E840A970A44EA815447EA8357A4
:1003D000A4FB076802958D0A05FB07854FEA932C5D
:1003E00004FB0C542705029D4FEA065847EA1637CE
:1003F000B5EB08056EEB070C870E920E47EA8117E6
:1004000042EA8312A7FB0201B6EB0B0164EB000486
:100410002B0D43EA0C335E1844EB1C50DA46514670
:10042000E7FB0201C5F313044FEA0B3343EA14530D
:100430004FEA0432019C43EA0603A4F10C0402943F
:10044000009CCDE900B400F05CF803B0BDE8F08F8B
:1004500000200146F9E70EB540F233410291002138
:10046000CDE900110A460B4600F04BF803B000BD81
:10047000C1F30A5210B5C1F3130140F2FF3341F446
:1004800080119A4201DA002010BD40F233439A42B3
:10049000A2F2334203DC5242FFF790FE10BD9040BF
:1004A00010BD202A04DB203A00FA02F10020704738
:1004B0009140C2F1200320FA03F3194390407047A2
:1004C000202A06DBCB17203A41FA02F043EAE07318
:1004D00006E041FA02F3D040C2F120029140084305
:1004E0001946704710B5141E73F1000408DA401C59
:1004F00041F1000192185B411A4301D120F0010043
:1005000010BD2DE9F04D92469B4611B1B1FA81F232
:1005100002E0B0FA80F220329046FFF7C2FF0446B4
:100520000F4640EA0A0041EA0B0153465A46084387
:1005300013D0114653EA010019D0C8F140025046C9
:10054000FFF73CFE05460E46504659464246FFF729
:10055000A8FF084305D0012004E020463946BDE845
:10056000F08D0020054346EAE0762C4337430A9895
:100570006305E40AA0EB08000022FD0A44EA4754A0
:100580000A3002D500200146E9E70105101969414A
:10059000DDE9084500196941BDE8F04DA2E700001A
:1005A000064C074D06E0E06840F0010394E80700C0
:1005B00098471034AC42F6D3FFF79CFDBC540008BA
:1005C000DC540008FEE77047704700002DE9F84F43
:1005D000DFF8B891002409F1040A0AF1040B23465C
:1005E0000F270BF1040EC9E00125A5402A40AA42BD
:1005F0007DD1674ED1F804C0ACEB0608B44532D0CB
:1006000014DCBCF1030F3AD009DCBCF1000F2AD096
:10061000BCF1010F1CD0BCF1020F31D11DE0BCF1C7
:10062000110F17D0BCF1120F2AD119E0B8F5881FAD
:1006300019D006DCB8F5803F15D0B8F5801F1FD162
:1006400011E0B8F5001F0ED0B8F5041F18D10AE06C
:10065000CB6815E0CB681B1D12E0CB6808330FE0B8
:10066000CB680C330CE08B682BB1012B4FF00803E7
:1006700003D0456104E0042302E0056100E00023AB
:10068000FF2A01D8064601E000F104064FEA84057E
:1006900001D9A5F12005D6F8008007FA05FC28EA63
:1006A0000C0803FA05F548EA0508C6F800804D680D
:1006B000ED0062D5374DAE6946F00106AE61AD6919
:1006C00024F0030605F001050095334D06EB050CFB
:1006D000DCF80850A607360F07FA06F825EA0805E1
:1006E000DFF8B880404503D14FF0000817E044E040
:1006F000DFF8AC80404502D14FF001080FE0DFF891
:10070000A480404502D14FF0020808E0DFF898804D
:10071000404502D14FF0030801E04FF0040808FA09
:1007200006F848EA0508CCF808804D68D9F800605A
:10073000ED034D4601D5164300E096432E604D680B
:10074000DAF80060AD03554601D5164300E0964344
:100750002E604D68DBF80060ED025D4601D5164362
:1007600000E096432E604D68DEF80060AD027546ED
:1007700001D5164300E096432E60641C0D682A469E
:10078000E5407FF431AFBDE8F88F00000004014080
:10079000000011100010024000000140000801405C
:1007A000000C014000100140001401400AB1016139
:1007B00070470904FBE700000148806870470000AB
:1007C000340000200248816802781144816070473B
:1007D00034000020074810B5016841F010010160A5
:1007E000032000F095F8002000F006F800F03EF835
:1007F000002010BD0020024000B5014687B0002255
:10080000192000F065F8192000F054F813488169A8
:1008100041F400618161806905A900F400600690DF
:10082000684600F01DF900F04BF90D490D4AB0FB88
:10083000F1F10D48491E0260416040F2E7320021AB
:10084000C0E90321816000F047FB10B1012007B02F
:1008500000BD054800F06EFBF9E700000010024003
:1008600040420F00002C0140800200200F4808B5D4
:10087000816941F001018161816901F0010100910B
:10088000C16941F08051C161C069002200F080500F
:1008900000900F21901E00F01BF80548416821F0E0
:1008A000E06141F00071416008BD000000100240AD
:1008B00000000140002809DB00F01F0201219140E7
:1008C0004009800000F1E020C0F8001170470000EE
:1008D000F0B40E4B1B680C46C3F30223C3F10705AB
:1008E000042D00D90425191D072901D2002300E099
:1008F000DB1E012606FA05F1491E214099409E4063
:10090000761E16403143F0BC01F0CFBC0CED00E088
:10091000064900F0070208684FF6FF03184040EA56
:100920000220034A10430860704700000CED00E00D
:100930000000FA052DE9F0470F46050061D0434E4F
:10094000306800F00700B84209D2306820F0070094
:1009500038433060306800F00700B84251D1286851
:100960003B4C810712D5400703D5606840F4E06036
:1009700060602878000703D5606840F460506060CC
:100980006068A96820F0F000084360602878C0071C
:1009900028D06868012810D02168022810D0890763
:1009A00000292EDA616821F0030101436160FFF73D
:1009B00003FF804641F288390DE021688903EFE7A3
:1009C0008901EDE7FFF7F8FEA0EB0801494502D9E0
:1009D0000320BDE8F0876068696800F00C00B0EBA8
:1009E000810FEFD1306800F00700B8420BD93068B2
:1009F00020F0070038433060306800F00700B8424C
:100A000001D00120E5E72878400705D56068E9684E
:100A100020F4E060084360602878000706D560682D
:100A2000296920F4605040EAC100606000F058F885
:100A30006168084AC1F30311515CC8400649086067
:100A400006480068FFF7D8FE0020C2E700200240F9
:100A500000100240685400084000002038000020C8
:100A60000F2202600C4A536803F00303436053688B
:100A700003F0F0038360536803F4E063C3605268DB
:100A80004FF4E06303EAD20202610448006800F018
:100A9000070008607047000000100240002002407C
:100AA0000448054900684968044AC1F30221515CC1
:100AB000C8407047400000200010024078540008F1
:100AC0000448054900684968044AC1F3C221515CE1
:100AD000C8407047400000200010024078540008D1
:100AE00012A185B00FC98DE80F0014A0144A006848
:100AF00004905168134801F00C03042B10D0082B0C
:100B00000ED1C1F38343C9031DF803000AD5516810
:100B100004AAC1F34041515C0A4A5043B0FBF1F0D2
:100B200005B0704708494843FAE70000020304058E
:100B3000060708090A0B0C0D0E0F10100102000029
:100B40000010024000127A0000093D002DE9F84F24
:100B5000040070D02078C04DC00749D06868C0F349
:100B60008100012807D06868C0F38100022809D1FC
:100B70006868C00306D52868800339D560680028F6
:100B8000E7D035E06068B0F5803F0BD010B1B0F52C
:100B9000A02F11D0286820F480302860286820F425
:100BA000802002E0286840F480302860606890B1BE
:100BB000FFF702FE06460AE0286840F4802028601D
:100BC000F0E700BFFFF7F8FD801B642873D82868A2
:100BD0008003F7D50CE0FFF7EFFD064605E000BF08
:100BE000FFF7EAFD801B6428F0D828688003F7D45B
:100BF00020789A4E80074FF001094FF0000839D550
:100C0000686810F00C0F07D06868C0F381000228F4
:100C100009D16868C00306D42868800714D5206904
:100C2000012808D110E02069B0B1C6F80090FFF7A4
:100C3000C3FD074605E00AE1FFF7BEFDC01B022821
:100C4000C4D828688007F7D52868616920F0F800C3
:100C500040EAC10028600DE0C6F80080FFF7ACFD57
:100C6000074604E0FFF7A8FDC01B022823D8286828
:100C70008007F7D4207800072CD57948A169D9B12D
:100C8000C0F80090FFF798FD074604E0FFF794FDD9
:100C9000C01B02280FD8686A8007F7D571484FF447
:100CA000FA510068B0FBF1F0009000BF0098411EBF
:100CB0000091FAD20EE080E0C0F80080FFF77CFDE2
:100CC000074604E0FFF778FDC01B022875D8686A64
:100CD0008007F7D42078400760D5E8690027C00076
:100CE00008D4E86940F08050E861E869012700F025
:100CF000805000905C480168C90513D401688346A0
:100D000041F480710160FFF757FD824606E000BFA5
:100D1000FFF752FDA0EB0A0064284ED8DBF8000074
:100D2000C005F5D5E06801280AD008B1052813D020
:100D3000286A20F001002862286A20F0040002E0FE
:100D4000286A40F001002862E06841F2883B98B1CF
:100D5000FFF732FD82460BE0286A40F0040028626B
:100D6000EEE700BFFFF728FDA0EB0A0159455AD86E
:100D7000286A8007F6D50CE0FFF71EFD824605E0E5
:100D8000FFF71AFDA0EB0A0159454CD8286A8007E5
:100D9000F6D41FB1E86920F08050E861E06988B3BB
:100DA0006968C1F38101022944D00228C6F8608035
:100DB00004D0FFF701FD044638E034E0FFF7FCFC07
:100DC000074604E0FFF7F8FCC01B02282BD8286870
:100DD0008001F7D4206AB0F5803F05D16868A1682A
:100DE00020F4003008436860D4E9080108436968CA
:100DF00021F4741108436860C6F86090FFF7DCFCCA
:100E0000044606E025E000BFFFF7D6FC001B0228E1
:100E100009D828688001F7D51BE000BFFFF7CCFC9C
:100E2000001B022802D90320BDE8F88F2868800142
:100E3000F4D40EE00128F7D06868226A00F480310B
:100E4000914204D1616A00F47010884201D00120FF
:100E5000EAE70020E8E700000010024000004242FC
:100E600080044242400000200070004070477047FC
:100E700070B590F83C20012A26D0012480F83C402F
:100E8000022280F83D2003685A689D6822F07006AF
:100E90000A6832435A600D4B02689A4208D0B2F198
:100EA000804F05D00A4B9A4202D00A4B9A4204D195
:100EB000496825F080031943916080F83D40002186
:100EC00080F83C10084670BD022070BD002C014027
:100ED000000400400008004010B5040003D094F85E
:100EE0003D0010B107E0012010BD002084F83C0057
:100EF000204600F01EF8022084F83D00211D2068E5
:100F000001F048F8012084F8460084F83E0084F897
:100F10003F0084F8400084F8410084F8420084F8DF
:100F2000430084F8440084F8450084F83D00002024
:100F300010BD704790F83D10012901D00120704785
:100F4000022180F83D100168CA6842F00102CA60BF
:100F500000680B49884208D0B0F1804F05D009499C
:100F6000884202D00849884204D1816801F0070113
:100F7000062903D0016841F001010160002070479B
:100F8000002C0140000400400008004070B50546F8
:100F90002148854216D1214C00264FF00401E0790A
:100FA000002828460FD000F0A5FB6061E671286894
:100FB000016A21F0A00101622868016A41F0200164
:100FC0000162266170BD00F095FB0121A061E17115
:100FD0002A68136A23F0A00313622A68136A136253
:100FE000228A0F4B00EB02406269801AA0F58852FA
:100FF000313AE061C72A02D21860217270BD227AAC
:10100000002AFBD043F82200521CD0B220722028C4
:10101000F4D96172267270BDAC010020000000207E
:10102000A40000202DE9F041054690F83C000C4654
:10103000012836D0012085F83C008AB3042A42D02A
:101040002868082A51D0D4E90023E168066A26F40A
:1010500080560662C669076A26F4407646EA03238C
:101060004FF6FF7606EA013123F4704319434FF43B
:10107000005627F4005306EA02321A43C1610262A5
:101080002868C16921F44061C1612868C169A2680A
:1010900041EA0221C161002085F83C00BDE8F081F1
:1010A00001E00220FAE7D4E90012E368286801F0C1
:1010B00057F82868816921F00C01816128688169ED
:1010C000A26811430FE0D4E90012E368286801F038
:1010D00073F82868816921F4406181612868816919
:1010E000A26841EA02218161D5E7D4E90027267B85
:1010F000016A21F480710162C169036A21F0030170
:10110000394321F0F00731074FF4007647EA1161C7
:1011100023F4007306EA02221A43C16102622868BE
:10112000C16921F00C01C1612868C169A26811433D
:10113000B0E710B5040003D094F83D0010B107E00B
:10114000012010BD002084F83C00204600F01EF86D
:10115000022084F83D00211D206800F01BFF0120C3
:1011600084F8460084F83E0084F83F0084F840008C
:1011700084F8410084F8420084F8430084F8440075
:1011800084F8450084F83D00002010BD7047000041
:1011900010B5044651B104290DD0082910D094F897
:1011A000410094F84520012811D10EE094F83E004A
:1011B00094F84220F7E794F83F0094F84320F2E7D0
:1011C00094F8400094F84420EDE7012A01D0012072
:1011D00010BD022051B1042911D0082918D084F87B
:1011E000410084F845000C291BD136E084F83E000C
:1011F00084F842002068C26842F0020210E084F8DD
:101200003F0084F843002068C26842F0040207E00F
:1012100084F8400084F844002068C26842F0080264
:10122000C2600122206800F0EBFE0E49206888426F
:1012300008D0B0F1804F05D00B49884202D00B494D
:10124000884204D1816801F00701062903D00168B2
:1012500041F001010160002010BD2068C26842F029
:101260001002DDE7002C01400004004000080040AF
:1012700070B50446006801694FF00005C94389074D
:1012800015D4C168C943890711D4E91E0161012041
:101290002077206880698007204602D0FFF776FE1D
:1012A00004E000F0E3F8204600F0C0F9257720685C
:1012B0000169C943490717D4C168C943490713D411
:1012C0006FF004010161022020772068806910F42A
:1012D000407F204602D0FFF759FE04E000F0C6F838
:1012E000204600F0A3F9257720680169C943090762
:1012F00016D4C168C943090712D46FF0080101610F
:10130000042020772068C0698007204602D0FFF7BC
:101310003DFE04E000F0AAF8204600F087F92577AA
:1013200020680169C943C90617D4C168C943C90601
:1013300013D46FF010010161082020772068C06984
:1013400010F4407F204602D0FFF720FE04E000F0BA
:101350008DF8204600F06AF9257720680169C943B5
:10136000C90708D1C168C943C90704D1891E0161F1
:10137000204600F0B5F920680169C943090609D47F
:10138000C168C943090605D46FF080010161204698
:10139000FFF76CFD20680169C943490609D4C1689B
:1013A000C943490605D46FF040010161204600F0B1
:1013B000B6F920680169C94389060BD4C168C943DD
:1013C000890607D46FF0200101612046BDE8704016
:1013D000FFF74DBD70BD000030B585B00021009114
:1013E00001910291039103681B4A02211B48B3F14A
:1013F000804F13D01A4D4024AB421CD1936943F067
:10140000040393619269CDE9004102F00402CDE941
:1014100003126946FFF7DAF805B030BD936943F06F
:10142000040393619269039102F0040204920F2273
:10143000CDE90021EDE70B488342EDD1906940F002
:10144000080090619069CDE9004100F00800CDE905
:10145000031069460448DDE700100240000801401F
:101460000004004000080040000C0140704770B5C7
:10147000044690F83C000D4601280AD0012084F86B
:101480003C0042B1042A18D0082A2AD00C2A4DD197
:1014900039E0022070BD206800F0C0FD206881693D
:1014A00041F0080181612068816921F004018161B6
:1014B000206881692A69114311E0206800F0D6FD97
:1014C0002068816941F4006181612068816921F4AB
:1014D00080618161206881692A6941EA0221816114
:1014E00024E0206800F0EEFD2068C16941F00801A9
:1014F000C1612068C16921F00401C1612068C1692E
:101500002A69114311E0206800F008FE2068C169D3
:1015100041F40061C1612068C16921F48061C16149
:101520002068C1692A6941EA0221C161002084F86A
:101530003C0070BD10B5040003D094F83D0010B11C
:1015400007E0012010BD002084F83C00204600F098
:101550001FF8022084F83D00211D206800F01AFDCC
:10156000012084F8460084F83E0084F83F0084F8A7
:10157000400084F8410084F8420084F8430084F875
:10158000440084F8450084F83D00002010BD0000B0
:1015900000B585B00021009101910291039101688D
:1015A0001E48B1F1804F24D01D4A914229D1C16912
:1015B00041F00201C161C16901F002010491816938
:1015C00041F0040181618069694600F004000490E3
:1015D00080200090012002901248FEF7F7FF0022C1
:1015E00005211D20FFF774F91D20FFF763F905B0F1
:1015F00000BDC16941F00101C161C06900F0010095
:1016000009E0094A9142F2D1C16941F00401C16186
:10161000C06900F004000490E9E7000000100240F7
:1016200000040040000801400008004003498842CF
:1016300003D103480169491C01617047AC010020D6
:101640000000002010B50446022249B104290ED042
:10165000082913D094F84100012816D0012010BDAC
:1016600094F83E000128F9D184F83E200FE094F868
:101670003F000128F2D184F83F2008E094F84000B0
:101680000128EBD184F8402001E084F841200122B8
:10169000206800F0B5FC0F492068884203D1426CF5
:1016A00042F4004242642068884208D0B0F1804F82
:1016B00005D00949884202D00849884204D181688E
:1016C00001F00701062903D0016841F00101016022
:1016D000002010BD002C0140000400400008004024
:1016E00000680349884201D1FFF76CB870470000D9
:1016F000002C01400246002041B1042909D00829EC
:101700000AD00C2901D11068006C70471068406B3A
:1017100070471068806B70471068C06B70477047E7
:1017200070B5040004D094F83D00002510B106E027
:10173000012070BD84F83C50204600F023F824209E
:1017400084F83D002068C16821F40051C160204642
:1017500000F04EFD2068016921F49041016120688C
:10176000416921F02A0141612068C16841F40051BA
:10177000C1602564202084F83D0084F83E000020EC
:1017800070BD000030B585B000240094019402942F
:10179000039400681449884224D11448816941F4B3
:1017A00080418161816901F480410491816941F046
:1017B0000401816180690E4D00F0040004904FF433
:1017C0000070009002200190032003906946284693
:1017D000FEF7FCFE2815CDE9000469462846029470
:1017E000FEF7F4FE05B030BD0038014000100240A5
:1017F00000080140FEE7000010B59AB014221C4911
:101800006846FEF7EBFC0021684600F0AEFE194C7E
:10181000174914222062143105A8FEF7DFFC0021CD
:1018200005A800F0A2FE12496062142228310AA81D
:10183000FEF7D4FC00210AA800F097FE0C49A06234
:1018400014223C310FA8FEF7C9FC00210FA800F0BC
:101850008CFE0749E0621422503114A8FEF7BEFC4A
:10186000002114A800F081FE20631AB010BD000012
:1018700004540008000000202DE9F04786B0002441
:101880002E480094019402940394816941F0100160
:101890008161816901F010010491816941F02001A9
:1018A0008161816901F020010491816941F00401A5
:1018B0008161816901F004010491816941F00801AD
:1018C00081618069DFF8788000F008004FF40055EE
:1018D0000490002229464046FEF768FFDFF8649036
:1018E000002230214846FEF761FFDFF85CA04FF48C
:1018F0004057002239465046FEF758FF0095022611
:1019000001250396CDE9015469464046FEF75EFE87
:101910003020CDE90005CDE9024669464846FEF78C
:1019200055FE0320CDE90240CDE9007569465046D9
:10193000FEF74CFE06B0BDE8F08700000010024044
:101940000010014000080140000C014010B58AB0B1
:10195000002407941C2168460894FEF758FC22488E
:101960004FF0804101604721C0E9011444F6206135
:10197000C0E9031480218161FFF7DCFD08B1FEF7A7
:1019800023FE079407A918480894FFF771FA08B1D5
:10199000FEF71AFE6020CDE9000402940022694699
:1019A00011480494FFF763FD08B1FEF70DFE042211
:1019B00069460D48FFF75BFD08B1FEF705FE0822FA
:1019C00069460948FFF753FD08B1FEF7FDFD0C22FB
:1019D00069460548FFF74BFD08B1FEF7F5FD0248E3
:1019E000FFF7FAFC0AB010BD6401002010B58EB0FC
:1019F00000240B941C2168460C94FEF708FC224836
:101A00000794089409941F490A9401604721C0E98A
:101A100001144FF6FF71C0E9031480218161FFF7C3
:101A200089FD08B1FEF7D0FD1748FFF782FB08B12A
:101A3000FEF7CAFD0B940BA913480C94FFF718FA94
:101A400008B1FEF7C1FD6020CDE900040294002238
:101A500069460D480494FFF70AFD08B1FEF7B4FD8E
:101A60000120CDE907400994042207A906480A94F9
:101A7000FFF7D8FA08B1FEF7A7FD0348FFF7ACFC63
:101A80000EB010BD00040040AC01002010B58AB0BB
:101A9000002407941C2168460894FEF7B8FB1748F9
:101AA000154901604721C0E901144FF47A71C0E97A
:101AB000031480218161FFF73DFD08B1FEF784FD2D
:101AC000079407A90D480894FFF7D2F908B1FEF76B
:101AD0007BFD6020CDE9000402940022694607489E
:101AE0000494FFF7C4FC08B1FEF76EFD0348FFF74E
:101AF00073FC0AB010BD000000080040F401002093
:101B00000C4810B50A4901604FF41651416000219C
:101B100081600C22C160C0E904128161C161FFF7DC
:101B2000FFFD002803D0BDE81040FEF74DBD10BDFD
:101B3000003801403C020020FEE7704700F03AFF09
:101B400000F00EFC3B4E3C4C01253168E0684863D8
:101B50002079332815D0462000F0C6FB374F39686E
:101B600048635A2000F0C0FB396888634F2000F0BA
:101B7000BBFB3968C8635F2000F0B6FB39680864B6
:101B8000E3E7A57025706570642000F0E2FC207822
:101B90000128F9D060780128F6D00220A0702570C5
:101BA0006570642000F0D5FC20780128F9D06078B9
:101BB0000128F6D00320A0702570642000F0C9FC35
:101BC00020780128F9D00420A0702570642000F04E
:101BD000C0FC20780128F9D00520A0702570657020
:101BE000642000F0B6FC20780128F9D06078012844
:101BF000F6D00620A07025706570642000F0A9FC66
:101C000020780128F9D060780128F6D00720A0704C
:101C10002570642000F09DFC20780128F9D0082070
:101C2000A0702570642000F094FC20780128F9D081
:101C30008BE70000F4010020000000206401002078
:101C4000584E594C4FF4FA780027A078012813D148
:101C5000207801287ED1404600F07BFC46252846AE
:101C600000F042FB31684863E07800F072FC6D1CC4
:101C7000EDB25A2DF3D92770A078022810D1207820
:101C8000012867D15A25284600F02EFB3168886369
:101C9000E07800F05EFC6D1EEDB2462DF3D22770A9
:101CA000A078032810D12078012876D15A2528461B
:101CB00000F01AFB31684863E07800F04AFC6D1EC2
:101CC000EDB2462DF3D22770A078042810D12078E9
:101CD000012862D14625284600F006FB316888635A
:101CE000E07800F036FC6D1CEDB25A2DF3D9277068
:101CF000A078052813D1207801284ED1404600F065
:101D000028FC4F25284600F0EFFA3168C863E078D8
:101D100000F01FFC6D1EEDB23B2DF3D22770A078B2
:101D2000062810D12078012837D15F25284600F0F9
:101D3000DBFA31680864E07800F00BFC6D1CEDB252
:101D4000732DF3D92770A078072812D120780128A5
:101D500023D100E021E03B25284600F0C5FA316898
:101D6000C863E07800F0F5FB6D1CEDB24F2DF3D9A0
:101D70002770A078082810D1207801280DD173256C
:101D8000284600F0B1FA31680864E07800F0E1FB21
:101D90006D1EEDB25F2DF3D22770012000F0D9FB4C
:101DA00053E7000064010020000000202B4D2C4C64
:101DB0000027A078012810D16078012849D14F264A
:101DC000304600F091FA2968C863E07800F0C1FB62
:101DD000761CF6B2782EF3D96770A078022810D15D
:101DE0006078012835D17826304600F07DFA2968E0
:101DF000C863E07800F0ADFB761EF6B24F2EF3D24A
:101E00006770A078052810D16078012821D1462676
:101E1000304600F069FA29684863E07800F099FBE1
:101E2000761EF6B2262EF3D26770A078062810D15F
:101E3000607801280DD12626304600F055FA296831
:101E40004863E07800F085FB761CF6B2462EF3D9A5
:101E50006770012000F07DFBABE70000640100200B
:101E6000000000200125144C00264FF4C877A5710E
:101E700060790A280DD2DFE800F00C050711131570
:101E800017191B1D0D4A00E00D4A0121084600F0FC
:101E90004FFAA671384600F05CFBE8E7094AF4E720
:101EA000094AF2E7094AF0E7094AEEE7094AECE78E
:101EB000094AEAE7094AE8E7000000200430000880
:101EC0000434000804380008043C000804400008FA
:101ED0000444000804480008044C000804500008AA
:101EE000064C4FF4C875A07918B900F0E1FA00F07B
:101EF0007DFA284600F02DFBF5E7000000000020E9
:101F000010B5502080F31188BFF34F8FBFF36F8F50
:101F100000F0B2FF18B104494FF080500860002073
:101F200080F3118810BD000004ED00E030B58FB0E3
:101F300028216846FEF76BF914210AA8FEF767F915
:101F400001210804CDE90010002402940225049127
:101F5000CDE907504FF4E01009906846FEF7F6FD12
:101F60000F20CDE90A056802CDE90C4002210AA83C
:101F70000E94FEF7DFFC0FB030BD70470148FFF74D
:101F800077B90000800200200148FFF771B9000016
:101F9000AC010020F0B50268164B174C174D4FF0FE
:101FA0008047984205D0B84203D0A04201D0A84251
:101FB00003D122F070064A683243984205D0B842F5
:101FC00003D0A04201D0A84203D122F44074CA68D1
:101FD00022434C6922F08002224302608A68C26276
:101FE0000A688262984201D1096901630121416155
:101FF000F0BD0000002C014000040040000800403B
:1020000010B501F01F030121046A99408C4304625A
:10201000016A9A401143016210BD000030B5026AA6
:1020200022F001020262026A4368846924F07305A7
:102030000C682C4322F002058A682A430A4DA84204
:102040000BD122F00805CA6823F440732A434D6976
:1020500022F004021D438B692B434360846149686D
:102060004163026230BD0000002C014030B5026ABD
:1020700022F010020262026A436884690D6824F447
:10208000E64444EA05248D6822F0200242EA051263
:102090000B4DA8420ED1CD6822F0800242EA051213
:1020A0004D6923F4406343EA85038D6922F04002C1
:1020B00043EA85034360846149688163026230BDFD
:1020C000002C014030B5026A22F480720262036A79
:1020D0004268C46923F4007324F073050C682C4330
:1020E0008D6843EA05230C4DA8420ED1CD6823F438
:1020F000006343EA05234D6922F4405242EA051287
:102100008D6923F4806342EA05124260C461496824
:10211000C163036230BD0000002C014030B5026A8B
:1021200022F480520262046A4268C3690D6823F493
:10213000E64343EA05238D6824F4005444EA053459
:10214000064DA84204D14D6922F4804242EA85122C
:102150004260C36149680164046230BD002C0140E3
:1021600070B5046A24F0010404628469056A0F4EA4
:10217000B04208D0B0F1804F05D00D4EB04202D031
:102180000C4EB04203D124F00304144301E044F0A8
:1021900001041A0724F0F00444EA126225F00A034D
:1021A00001F00A0119438261016270BD002C0140F7
:1021B000000400400008004030B5046A24F0100418
:1021C00004628469056A24F4407444EA022222F419
:1021D00070444FF6FF7202EA03322243A02425F036
:1021E000A00304EA011119438261016230BD0000BD
:1021F00070B5044600680169E26821F4405111435A
:1022000001612169A0680843616908432168CA68BF
:1022100041F20C639A430243CA6020684169A26993
:1022200021F44071114341611E492068884202D166
:10223000FEF746FC01E0FEF733FC00EBC00101EBCA
:102240000012606864218000B2FBF0F3B3FBF1F38D
:102250006FF018067343B2FBF0F5B2FBF0F605EB36
:102260008305322303EB0515B5FBF1F5B6FBF1F65B
:1022700005F0F00505EB0615B2FBF0F6B2FBF0F049
:10228000B0FBF1F06FF01802504306EB800003EB57
:102290000010B0FBF1F0216800F00F0028448860C6
:1022A00070BD000000380140FEE70907090E002854
:1022B00004DB00F1E02080F80014704700F00F000C
:1022C00000F1E02080F8141D704702E008C8121FDA
:1022D00008C1002AFAD170477047002001E001C10F
:1022E000121F002AFBD1704710B50446FEF7B3F861
:1022F0004FF033320A4BFEF73CF80A2C02D2002290
:10230000084B07E00A3C5A2C4FF0000201D2064B62
:1023100000E0064BFDF786FFBDE81040FEF7A8B8C9
:102320003333264000407F4000507F4000607F40B4
:102330002DE9F04116468846074600243819C0B2F8
:10234000414600F0DBF80025307800F09DFB6D1C65
:10235000761C802DF8DB641C082CEFDBBDE8F081D7
:1023600010B5214C002210212046FEF71FFA142040
:1023700000F0EFF8012210212046FEF717FA142092
:1023800000F0E7F8E22000F051FB022000F0E1F855
:102390002C2000F04BFB022000F0DBF82E2000F098
:1023A00045FB022000F0D5F82F2000F03FFB022073
:1023B00000F0CFF8212000F039FB812000F036FB3F
:1023C000202000F033FBA22000F030FBC82000F0FA
:1023D0002DFBA02000F02AFB402000F027FBBDE8E9
:1023E0001040AF2000F022BB000801402DE9F04F63
:1023F000DFF88C80234A244B244C254D254E264F54
:10240000DFF898C0DFF89890DFF898A0DFF898B070
:102410002649404503D133200871BDE8F08F904232
:1024200002D134220A7104E0984202D101224A7199
:1024300004E0A04202D102224A7104E0A84202D183
:1024400003224A7104E0B04202D104224A7104E03E
:10245000B84202D105224A7104E0604502D1062249
:102460004A7104E0484502D107224A7103E0504511
:1024700001D1082002E05845CFD109204871CCE7AE
:102480009768FF004FB0FF005DA2FF009D62FF0054
:102490001DE2FF00DD22FF00FD02FF003DC2FF0044
:1024A0001FE0FF0057A8FF006F90FF000000002012
:1024B000104B10B5587A0021012801D0002010BD22
:1024C0000D4A012052F82040A4F2F514C72C01D384
:1024D00041F00101401C4900C0B22128F2D3480854
:1024E00000210C4642F82140491CC9B22129F9D3E8
:1024F0005C7210BD00000020A400002010B5491E31
:10250000AF30CCB2C0B200F091FA102000EB141042
:1025100000F08CFA04F00F00BDE8104000F086BA1D
:10252000FEF758F9FFF702FDFFF7A6F9FFF70EFADD
:10253000FFF75CFAFFF7E4FAFFF7A8FAFFF75CF998
:1025400000F00EF8FEE701460020842900D0C81CE8
:10255000704710B500B9012000F07EFB002010BDCF
:1025600010B500F09FFB002010BD3EB504460D469F
:10257000B0F90800FFF7E7FF02A9CDE90001208AC2
:102580002B4682B2D4E9001000F04AFC012801D0A9
:1025900000203EBD02983EBD2DE9F041184C0F468B
:1025A000054666692068001D00F09CFA38B920686D
:1025B00090F82C1001208840A1698143A161681C1A
:1025C00007D137B12168BDE8F0410E48091D00F080
:1025D000C2BA20683544B5424560216805D2A0687A
:1025E000BDE8F041091D00F09EBA6068091D00F0C9
:1025F0009AFA206B854200D22563BDE8F081000085
:1026000044000020A40300202DE9F041054600F01D
:10261000AFFA2E4C2069401C206120682C4F10B16D
:10262000E06940B32DE025602069012829D100260A
:1026300006EB860007EB800000F067FA761C072E99
:10264000F6D323488C3000F060FA2148A03000F027
:102650005CFA1F48B43000F058FA1D48C83000F04A
:1026600054FA1B48DC3000F050FA19488C30606096
:102670001430A06005E02068E96AC06A884200D88A
:102680002560E06A401CE062E96A0120A269884096
:102690001043A06101EB810007EB8000291D00F0D1
:1026A0005AFA00F085FAE06900280CD02068E96A3F
:1026B000C06A884207D207494FF080500860BFF3D4
:1026C0004F8FBFF36F8FBDE8F08100004400002002
:1026D000C802002004ED00E010B50446006B00F0D5
:1026E0007BFA2046BDE8104000F076BA0F4842F26F
:1026F0001071420705D0C01D0C4A20F00700821A55
:10270000891A0B4A00230144C2E900030839103A30
:1027100021F0070111604B600B600B1AC0E9001338
:1027200093604FF000405360D0607047B8030020C2
:1027300090000020144E154CA6F1C8074FF08058A9
:10274000DFF84C9012E000BF00F012FAF068C568A4
:10275000281D00F0C7F92069401E2061E068401E76
:10276000E06000F025FA2846FFF7B6FFE068002891
:10277000EAD138680128F9D9C9F80080BFF34F8F32
:10278000BFF36F8FF2E700009003002044000020A9
:1027900004ED00E02DE9F0479A46DDE90984814621
:1027A0006FF00303206B03EB82021044089D20F0BE
:1027B0000706700707D0502080F31188BFF34F8FB2
:1027C000BFF36F8FFEE723180A5C83F834200A5C9E
:1027D00012B1401C1028F6D3002784F84370072D4F
:1027E00000D30625E562C4E91157201D00F098F9D1
:1027F00004F1180000F094F92461C5F10700646247
:10280000A061E76484F8507052464946304600F0B3
:10281000BFF82060B8F1000F01D0C8F80040BDE853
:10282000F087000030B5114900E011460A68824285
:10283000FBD34B685C18844203D14068184448605D
:10284000084643681C18944209D1084C103C24687F
:10285000A24209D052681A4442600A6812680260B3
:10286000814200D0086030BD0460F9E7900000208C
:1028700006484168096829B14168C968C96849685A
:10288000016370474FF0FF31FAE700004400002079
:1028900008484068401C4FF0500080F3118804D075
:1028A000BFF34F8FBFF36F8FFEE7BFF34F8FBFF3C1
:1028B0006F8FFEE7980000202DE9F04105460027C4
:1028C00000F024FA314E306808B9FFF70FFFF068C6
:1028D00005424BD1C5B3083568070ED005F0070097
:1028E000C0F108000544680707D0502080F3118824
:1028F000BFF34F8FBFF36F8FFEE72DB37068854234
:1029000034D82248103001460C6801E020460C46BD
:102910006168A94202D221680029F7D131688C424E
:1029200024D007682168016060680837411B1029BE
:102930000FD96019420708D0502080F31188BFF3E7
:102940004F8FBFF36F8FFEE710E041606560FFF7C8
:1029500069FF61687068401A7060B268904200D286
:10296000B060F06801430020C4E9000100F0E8FA1B
:10297000780707D0502080F31188BFF34F8FBFF343
:102980006F8FFEE73846BDE8F08100008000002030
:1029900010B5031F4FF080741C601B1F21F0010154
:1029A0001960191F024B0B60143940380A6010BDC2
:1029B0009128000810B500211948FEF743FE0421B4
:1029C0001748FEF73FFE08211548FEF73BFE0C2195
:1029D0001348FEF737FE00211248FEF733FE124877
:1029E000FEF7A8FA04211048FEF7D2FB4FF4FA7064
:1029F000FFF7AFFD4620FFF777FC094C21684863DD
:102A00005A20FFF771FC216888634F20FFF76CFCA8
:102A10002168C8635F20FFF767FC2168086410BD68
:102A200064010020F4010020AC0100202DE9F041F8
:102A30000546002220211248FDF7B8FE114F002460
:102A40004FF400584FF48056002231463846FDF7C7
:102A5000ADFE280601D5012200E00022414638469D
:102A6000FDF7A4FE012231463846FDF79FFE6806B9
:102A7000641C050EE4B2082CE6D3BDE8F08100002A
:102A800000080140000C01402DE9F04105460122FB
:102A900020211248FDF78AFE114F00244FF4005800
:102AA0004FF48056002231463846FDF77FFE280657
:102AB00001D5012200E0002241463846FDF776FEAE
:102AC000012231463846FDF771FE6806641C050E8A
:102AD000E4B2082CE6D3BDE8F08100000008014014
:102AE000000C0140D0E9013201699A60D0E901236C
:102AF0005A604A68824201D182684A6000220261BB
:102B00000868401E08600868704700F108014FF02F
:102B1000FF32C0E90112C16001610021016070470C
:102B200000210161704730B50B685A1C02D000F1DA
:102B3000080202E0026904E02246546825689D42CA
:102B4000FAD953684B6099608A60516008610168E6
:102B5000491C016030BD42684A6093688B6093688D
:102B60005960916008610168491C0160704700006C
:102B7000502080F31188BFF34F8FBFF36F8F0A4946
:102B80004868401C486001280CD10848006810F0D3
:102B9000FF0F07D0502080F31188BFF34F8FBFF392
:102BA0006F8FFEE7704700009800002004ED00E002
:102BB0000849486828B1401E486001D180F3118857
:102BC0007047502080F31188BFF34F8FBFF36F8F92
:102BD000FEE700009800002070B5002827D0144DB3
:102BE000A0F108046168E868014207D1502080F331
:102BF0001188BFF34F8FBFF36F8FFEE722683AB1A2
:102C0000502080F31188BFF34F8FBFF36F8FFEE723
:102C10008143616000F07AF8606869680844686020
:102C20002046FFF7FFFDBDE8704000F089B970BD98
:102C3000800000204FF0E020002101618161054902
:102C40004FF47A720968B1FBF2F1491E4161072124
:102C5000016170474000002010B5020014D00F48F9
:102C6000806B38B1502080F31188BFF34F8FBFF3D2
:102C70006F8FFEE700F04AF800211046FFF78CFC4A
:102C800000F05EF9002807D105494FF08050086038
:102C9000BFF34F8FBFF36F8F10BD000044000020C3
:102CA00004ED00E01CB515480024CDE900402346A2
:102CB000802213A1144800F0B3F8012809D0401C69
:102CC0001AD1502080F31188BFF34F8FBFF36F8F5D
:102CD000FEE7502080F31188BFF34F8FBFF36F8F53
:102CE00006484FF0FF31343801630121C16144616E
:102CF000BDE81C4000F040B81CBD0000780000207A
:102D000049444C4500000000352700080248816B0B
:102D1000491C816370470000440000201448816B07
:102D200011B1012141627047002141628169B1FA0C
:102D300081F1C1F11F0101EB81020E4951F82230EE
:102D40006BB101EB820101F108034A6852684A60E5
:102D50009A4201D152684A60D168016070475020A0
:102D600080F31188BFF34F8FBFF36F8FFEE7000032
:102D700044000020C80200201CB5264908780190B4
:102D8000FF20087008788DF800009DF800009DF87D
:102D9000002000F0F000904207D0502080F311880E
:102DA000BFF34F8FBFF36F8FFEE79DF800001A4B04
:102DB00000F0500018700720986005E09DF8002092
:102DC00052008DF80020401E9DF800201206F5D418
:102DD0009860032807D0502080F31188BFF34F8FED
:102DE000BFF36F8FFEE74FF4407098600198087052
:102DF0000A48016841F470010160016841F07041C6
:102E00000160FFF717FF00205860FDF78BF90020E5
:102E10001CBD000000E400E09800002020ED00E070
:102E20002DE9FF5F8346DDE90E87994616468A46FF
:102E30009000FFF741FD05001AD05420FFF73CFD3C
:102E4000040012D025630021CDE90241CDE90087BD
:102E50004B46324651465846FFF79CFC2046FFF74A
:102E6000D3FB012004B0BDE8F09F2846FFF7B4FE75
:102E70004FF0FF30F6E700002DE9F0412E4C00271F
:102E8000A06B40B1206A401C2062606A00B101273B
:102E90003846BDE8F0816669761C666113D16068CA
:102EA000006838B1502080F31188BFF34F8FBFF313
:102EB0006F8FFEE76068A1686160A060A06A401C37
:102EC000A062FFF7D5FC206BDFF87080864209D343
:102ED0006068006880B16068C068C56868688642DC
:102EE0000DD220632068C06A00EB800158F82100F1
:102EF0000128CAD90127C8E74FF0FF30F1E7281DA4
:102F0000FFF7F0FDA86A18B105F11800FFF7EAFD18
:102F1000E86A0121A26981401143A16100EB8001AF
:102F200008EB8100291DFFF716FEE86A2168C96ACF
:102F30008842CDD30127CBE744000020C8020020FF
:102F40002DE9F0472C4D00242746A86B38B1FFF738
:102F50000FFEA86B401EA863A86B40B146E050204E
:102F600080F31188BFF34F8FBFF36F8FFEE729699E
:102F7000224E0120D1B3A6F1B40980463068E8B1F1
:102F8000F068C46804F11800FFF7ACFD201DFFF7DE
:102F9000A9FDE06AAA6908FA00F11143A96100EBF2
:102FA000800109EB8100211DFFF7D5FDE06A29684A
:102FB000C96A8842E2D3C5F82480DFE70CB1FFF785
:102FC00057FC2C6A44B14646FFF756FF00B16E62CB
:102FD000641EF9D100202862686A38B108490127C7
:102FE00038070860BFF34F8FBFF36F8FFFF7E0FD27
:102FF0003846BDE8F0870000440000207C03002034
:1030000004ED00E0000000000000000000000000EF
:1030100000000000000000000000000000000000B0
:1030200000000000000000000000000000000000A0
:103030000000000000000000000000000000000090
:103040000000000000000000000000000000000080
:103050000000000000000000000000000000000070
:103060000000000000000000000000000000000060
:103070000000000000000000000000000000000050
:103080000000000000000000000000000000000040
:103090000000000000000000000000001018080CF4
:1030A00004060603030303030303030303030302EA
:1030B000020200000000000000000000000000000C
:1030C0000000000000000000000000000000000000
:1030D00000000000000202020303030303030303D2
:1030E000030303030206040C08181000000000008C
:1030F00000000000000000000000000000000000D0
:1031000000000000000000000000000000000000BF
:1031100000000000000000000000000000000000AF
:10312000000000008080808080808080000000009F
:10313000000000000000000000000000000000008F
:10314000000000000000000000000000000000007F
:10315000000000000000000000000000808080806F
:10316000808080800000000000000000000000005F
:10317000000000000000000000000000000000004F
:10318000000000000000000000000000000000003F
:1031900000000000000000000000C0F0380C04C671
:1031A000E2F3F9FDFDFCFEFE0F0F07070707070E10
:1031B0001EFCFCF8E0C00000000000000000000061
:1031C00000000000000000000000000000000000FF
:1031D0000000C0F0F8FCBC0E0E07070707070F1F22
:1031E000FEFEFCFDF9F9F3E2C60C1838E0C0000061
:1031F00000000000000000000000000000000000CF
:1032000000000000000000000000000000000000BE
:103210000000000000000000001FFFC0003CFFFF96
:10322000FFFFFFF3F3F7FFFFFFFEFCFCFCFCFCFEDF
:10323000FFFFFFFFFFFF3F00000000000000000055
:10324000000000000000000000000000000000007E
:10325000003FFFFFFFFFFFFEFCFCFCFCFCFCFEFF51
:10326000FFFFF3F3FBFFFFFFFFFF3800C0FF1E006F
:10327000000000000000000000000000000000004E
:10328000000000000000000000000000000000003E
:103290000000000000000000000000010306081B01
:1032A000373F3F3F7F7F7F7F7F7F7F7F3F3F3F3F36
:1032B0001F0F0703010000000000000000000000D5
:1032C00000000000000000000000000000000000FE
:1032D00000000001070F0F1F3F3F3F3F7F7F7F7FB1
:1032E0007F7F7F7F3F3F37371B0C060301000000C5
:1032F00000000000000000000000000000000000CE
:1033000000000000000000000000000000000000BD
:1033100000000000000000000000000000000000AD
:10332000000000000000000000000000000000009D
:10333000000000000000000000000C38306040C0B9
:10334000C0C0C0C0C0C0C0C0406060301C0C000025
:10335000000000000000000000000000000000006D
:10336000000000000000000000000000000000005D
:10337000000000000000000000000000000000004D
:10338000000000000000000000000000000000003D
:10339000000000000000000000000000000000002D
:1033A000000000000000000000000000000000001D
:1033B000000000000000000000000000000000000D
:1033C00000000000000000000000000000000000FD
:1033D00000000000000000000000000000000000ED
:1033E00000000000000000000000000000000000DD
:1033F00000000000000000000000000000000000CD
:1034000000000000000000000000000000000000BC
:1034100000000000000000000000000000C0C060CC
:10342000E06060604000000000000000000000005C
:10343000000000000000000000000000000000008C
:10344000000000000000000000000000000000007C
:10345000000000000000000000000000204040408C
:103460004060E0E040C0800000000000000000007C
:10347000000000000000000000000000000000004C
:10348000000000000000000000000000000000003C
:103490000000000000000000000602030100000020
:1034A000000000000000000000000000000000001C
:1034B000000000000000000000000000000000000C
:1034C00000000000000000000000000000000000FC
:1034D00000000000000000000000000000000000EC
:1034E00000000000000000010302040400000000CE
:1034F00000000000000000000000000000000000CC
:1035000000000000000000000000000000000000BB
:1035100000000000000000000000000000000000AB
:10352000008080C0607098C8C8C8F8F0E0C0808093
:10353000808080000000000000000000000000000B
:10354000000000000000000000000000000000007B
:1035500000000080808080C0C0E0F0F8C8C89830CB
:1035600060C08080800000000000000000000000BB
:10357000000000000000000000000000000000004B
:10358000000000000000000000000000000000003B
:103590000000000000000000000000FC6703F9FDCF
:1035A000FDFDFC3C0E070303030303030303070FA6
:1035B0000F3FFFFFFE0000000000000000000000C1
:1035C00000000000000000000000000000000000FB
:1035D000FEFFFFFF1F0F07030303010101030303A6
:1035E000060CFCFDFDFDFDF9F3FE080000000000E7
:1035F00000000000000000000000000000000000CB
:1036000000000000000000000000000000000000BA
:10361000000000000000000020F8CEE7F1FEFFFFF0
:103620007F1F0F0E0818B0F0E0E0C0E0602060F0EF
:10363000F8FCFFFFFFFFFC3000000000000000006E
:10364000000000000000000000000000000078FC06
:10365000FFFFFFFFF8F060206040C0E0E0E0703066
:10366000180C0F1FBFFFFFFFF8F3CEFC2000000077
:10367000000000000000000000000000000000004A
:10368000000000000000000000000000000000003A
:10369000000000000000808080808081C3C7CFFFD1
:1036A000FFFCF8F8F8FCFEFFFFFFFFF8F0F0F0F881
:1036B0007F1F070301000000000000000000000061
:1036C00000000000000000000000000000000000FA
:1036D0000101030F7FFCF8F0F0F8FFFFFFFFFEFC95
:1036E000F8F8F8FCFFFFDFCF838181808080000045
:1036F00000000000000000000000000000000000CA
:1037000000000000000000000000000000000000B9
:10371000000000000001010103030303030303038E
:10372000030303030303010303010101010101007A
:10373000000000000000000000000000008080C0C9
:10374000C04040404040C0C0800000000000000079
:103750000000000000000101010101010303010359
:103760000303030303030303030303030301010030
:103770000000000000000000000000000000000049
:103780000000000000000000000000000000000039
:103790000000000000000000000000000000000029
:1037A0000000000000000000000000000000000019
:1037B000000000000000000000000C0E03010100EA
:1037C00000000000000000000103060C00000000E3
:1037D00000000000000000000000000000000000E9
:1037E00000000000000000000000000000000000D9
:1037F00000000000000000000000000000000000C9
:1038000000000000000000000000000000000000B8
:1038100000000000000000000000000000000000A8
:1038200000000404080818183878F0F0E0E0C080C0
:103830000000000000000000000000000000000088
:103840000000000000000000000000000000000078
:10385000000000008080C0E0E0F0F0783818180820
:103860000808040000000000000000000000000044
:103870000000000000000000000000000000000048
:103880000000000000000000000000000000000038
:103890000000000000000000000000000000000028
:1038A000000000000080808080808001050B030FF5
:1038B0000F070200000000000000000000000000F0
:1038C00000000000000000000000000000000000F8
:1038D00000000207070F0F0B0503000080808080A7
:1038E00080800000000000000000000000000000D8
:1038F00000000000000000000000000000000000C8
:1039000000000000000000000000000000000000B7
:10391000000000000000000000000080C0703018AF
:103920000CC6E2F3F9F9FDFDFFFFFFFFFFFEFEFC11
:10393000FCF8E0C0000000000000000000000000F3
:103940000000000000000000000000000000000077
:10395000000000C0F0F8F8FCFEFFFF7F7F7F7FFDD6
:10396000FDF9F9F3E2C60C1830E0C00000000000D9
:103970000000000000000000000000000000000047
:103980000000000000000000000000000000000037
:10399000000000000000000000C0FE0F0100F8FE63
:1039A000FFFF0F07010101000000000000010307F5
:1039B0000FFFFFFFFFFC0000000000000000000000
:1039C00000000000000000000000000000000000F7
:1039D000E0FCFFFFFF1F07030100000000000000E4
:1039E000000101030F7FFFFCF000010FFCC000008D
:1039F00000000000000000000000000000000000C7
:103A000000000000000000000000000000000000B6
:103A100000000000000000000007FFE00007FFFFBB
:103A2000FFFFF8F0E0C080808080808080C0E0F000
:103A3000F8FFFFFFFF3F0000000000000000000053
:103A40000000000000000000000000000000000076
:103A50000F7FFFFFFFFCF0E0C0808080000000804F
:103A600080C0C0E0F8FFFFFFFF0F80F03F070000BD
:103A70000000000000000000000000000000000046
:103A80000000000000000000000000000000000036
:103A9000000000000000000000000001070C1937C2
:103AA0006F5FFFFFFFFFFFFFFFFFFFFFFFFF7F7F56
:103AB0003F1F0F0301000000000000000000000095
:103AC00000000000000000000000000000000000F6
:103AD000000001070F1F3F7FFFFFFFFFFFFFFFFFFA
:103AE000FFFFFFFFFF5F6733180E070100000000B4
:103AF00000000000000000000000000000000000C6
:103B000000000000000000000000000000000000B5
:103B100000000000000000000000000000000000A5
:103B2000000000000101010101010101010000008C
:103B3000000000000000000000000000F0FCFCFCA1
:103B4000FCFCFCFCFCFCFCFCFCF8000000000000A1
:103B5000000000000000000000000101010101015F
:103B60000101010100000000000000000000000051
:103B70000000000000000000000000000000000045
:103B80000000000000000000000000000000000035
:103B90000000000000000000000000000000000025
:103BA0000000000000000000000000000000000015
:103BB00000000000000000000000001C1F1F1F1F6D
:103BC0001F1F1F1F1F1F1F1F1F1F1C0000000000A3
:103BD00000000000000000000000000000000000E5
:103BE00000000000000000000000000000000000D5
:103BF00000000000000000000000000000000000C5
:103C000000000000000000000000000000000000B4
:103C100000000000000000000000000000000000A4
:103C20000000000000808080C0C0C0808080808054
:103C30000000000000000000000000000000000084
:103C40000000000000000000000000000000000074
:103C5000000000000000808080808080C0C0C080A4
:103C600080000000000000000000000000000000D4
:103C70000000000000000000000000000000000044
:103C80000000000000000000000000000000000034
:103C9000000000000000000000000000000000081C
:103CA00004060203030101010100000000000000FE
:103CB0000101000200000000000000000000000000
:103CC00000000000000000000000000000000000F4
:103CD00000000000010101000000000000000101DF
:103CE0000101030302060C080000000000000000B0
:103CF00000000000000000000000000000000000C4
:103D000000000000000000000000000000000000B3
:103D100000000000000000000000000000000000A3
:103D20000000000000000000000000000000000093
:103D30000000000000000000000000000000000083
:103D40000000000000000000000000000000000073
:103D50000000000000000000000000000000000063
:103D60000000000000000000000000000000000053
:103D70000000000000000000000000000000000043
:103D80000000000000000000000000000000000033
:103D90000000000000000000000000000080E07053
:103DA0003808CCE6F2F2FBFBFF7F3F1F0F0E0E1E22
:103DB0003CF8F8F0C08000000000000000000000A7
:103DC00000000000000000000000000000000000F3
:103DD0000080C0E0F87C1C1C0E0F0F1F3F7FFFFB14
:103DE000FBF3F2E6CC0C1870E0800000000000004D
:103DF00000000000000000000000000000000000C3
:103E000000000000000000000000000000000000B2
:103E1000000000000000000000000070FE8B00E0C9
:103E2000FCFFFFFFFF9F9FFFFFFCF0E0E0E0E0F002
:103E3000F0FFFFFFFFFFFE20000000000000000079
:103E40000000000000000000000000000000000072
:103E5000FCFFFFFFFFFCF0E0E0E0E0F0F0FCFFDF44
:103E60008F8FFFFFFFFFFC100007FF900000000096
:103E70000000000000000000000000000000000042
:103E80000000000000000000000000000000000032
:103E9000000000000000000000000000031F30616F
:103EA000CFBF7FFFFFFFFFFFFFFFFFFFFFFFFFFF12
:103EB000FFFFFF7F3F0F0300000000000000000035
:103EC00000000000000000000000000000000000F2
:103ED000030F3F7FFFFFFFFFFFFFFFFFFFFFFFFF1E
:103EE000FFFFFFFF7FBFCFE0781E0700000000004C
:103EF00000000000000000000000000000000000C2
:103F000000000000000000000000000000000000B1
:103F100000000000000000000000000000000000A1
:103F2000000103030707070F0F0F0F0F0707030316
:103F3000010100000000000000000000000000007F
:103F40000040E0E0C00000000000000000000000B1
:103F50000000000000010103030707070F0F0F0F08
:103F60000707070303010000000000000000000035
:103F70000000000000000000000000000000000041
:103F80000000000000000000000000000000000031
:103F90000000000000000000000000000000000021
:103FA0000000000000000000000000000000000011
:103FB0000000000000000000000000000000000001
:103FC00000000001000000000000000000000000F0
:103FD00000000000000000000000000000000000E1
:103FE00000000000000000000000000000000000D1
:103FF00000000000000000000000000000000000C1
:1040000000000000000000000000000000000000B0
:1040100000000000000000000000000000000000A0
:104020000000000000000000000000000000000090
:104030000000000000000000000000000000000080
:104040000000000000000000000000000000000070
:104050000000000000000000000000000000000060
:104060000000006070181818181818F0C000000040
:104070000000000000000000000000000000000040
:104080000000000000000000000000000000000030
:104090000000000000000000000000000000000020
:1040A0000000000000000000000000000000000010
:1040B0000000000000000000000000000000000000
:1040C00000000000000000000000000000C0607858
:1040D000B8387C3C1C1C1C0C0C08080800000000B4
:1040E0000000000060381818080C060300000000EB
:1040F00000000000000000000000000000000000C0
:1041000000000000000000000000000000000000AF
:10411000000000000000000000000000000000009F
:10412000000000000000000000000080808080800F
:10413000000000000000000000000000000000007F
:10414000000000000000000000000000010000016D
:10415000010000000000000000000000000000005E
:104160000000060600000000000000000000000043
:10417000000000000000000000000000000000003F
:10418000000000000000000000000000000000002F
:10419000000000000000000000000000000000001F
:1041A00000000000000000000001010101030307FE
:1041B0000F1F3EFCF8F0602000000000000000002F
:1041C000000000000000000000000000000080C0AF
:1041D00020F0F8F8FCFCFCFCFC7C3C3C383870E03F
:1041E000E08000000000000000000000000000006F
:1041F00000000000000000000000000000000000BF
:1042000000000000000000000000000000000000AE
:10421000000000000000000000000000000000009E
:10422000C0603090D8C8ECFCF8F87838383838706E
:10423000E0C080000000000000000000000000005E
:10424000000000000000000000000000F00E0370FD
:10425000FFFFFFFFFFFFFFFFF0E0C0C0C0E0E0F0A6
:10426000FFFFFEF000000000000000000000000062
:10427000000000000000000000000000000000003E
:10428000000000000000000000000000000000002E
:1042900000000000000000000000000000001CE71B
:1042A00001007EFFFFFFFF7F3F3FF8F0F0F0F8FCDA
:1042B000FFFFFF7C00000000000000000000000085
:1042C0000000000000000000000000000F78C000A7
:1042D000071F7FFFFFFF8F8F8FFFFFFFFFFFFFFF96
:1042E000FFFF7F0F00000000000000000000000042
:1042F00000000000000000000000000000000000BE
:1043000000000000000000000000000000000000AD
:10431000000000000000000000000000000000019C
:10432000070E1C18113327276F2F2F2F3F1F1F0F2A
:104330000F0301000000000000000000000000006A
:104340000000000000000000000000000000010369
:10435000060C181011333337372727371F1F0F0765
:104360000301000000000000000000000000000049
:10437000000000000000000000000000000000003D
:10438000000000000000000000000000000000002D
:10439000000000000000000000000000000000001D
:1043A000000000000000000000000000000000000D
:1043B0000000000000000000000000000000000CF1
:1043C0003F3F7F3F1E000000000000000000000093
:1043D00000000000000000000000000000000000DD
:1043E00000000000000000000000000000000000CD
:1043F00000000000000000000000000000000000BD
:1044000000000000000000000000000000000000AC
:10441000000000000000000000000000000000009C
:1044200000000080C0E0F078787C3C3C38383030C8
:10443000202000000000000000000000000000003C
:10444000000000000000000000000000000000006C
:104450000000000000000000202030303838383CD8
:104460007C7C7878F0E0C080000000000000000054
:10447000000000000000000000000000000000003C
:10448000000000000000000000000000000000002C
:10449000000000000000000000000000000000001C
:1044A0000006030101000000000000000000000001
:1044B00000000000000000000000000000000000FC
:1044C00000000000000000000000000000000000EC
:1044D00000000000000000000000000000000000DC
:1044E00000000000000001010200000000000000C8
:1044F00000000000000000000000000000000000BC
:1045000000000000000000000000000000000000AB
:10451000000000000000000000000000000000009B
:10452000000000000000008080406020B0B0E0E0AB
:10453000E0E0E0E0C0C080000000000000000000FB
:10454000000000000000000000000000000000006B
:104550000000000080C0E0E0E0E0E0E0E0B0A0208B
:1045600040C08000000000000000000000000000CB
:10457000000000000000000000000000000000003B
:10458000000000000000000000000000000000002B
:10459000000000000000000000000000000000001B
:1045A00000000000F80C03E1F8FCFEFFFFFFFF3FF6
:1045B0003F0F070F3F3FFFFFFEFCC0000000000061
:1045C00000000000000000000000000000000000EB
:1045D000F0FCFEFFFFFF3F1F07071F3FFFFFFFFF2E
:1045E000FEFCF1C3063CF0000000000000000000EB
:1045F00000000000000000000000000000000000BB
:1046000000000000000000000000000000000000AA
:10461000000000000000000000000000000000009A
:10462000000000001F30C09F7FFFFFFFFFEFE7C3C8
:10463000C6E4F8FCFEFFFFFF7F1F03000000000040
:10464000000000000000000000000000000000006A
:104650000F3FFFFFFFFFFFFEF8F0E6C3C3EFFFFFD2
:10466000FF7F3F8F603C0F00000000000000000053
:10467000000000000000000000000000000000003A
:10468000000000000000000000000000000000002A
:10469000000000000000000000000000000000001A
:1046A00000000000F0F0F8F9FBFEFFFFFFFFFFEF56
:1046B0000F070707030301000000000000000000CF
:1046C00000000000000000000000000000000000EA
:1046D000000000010103070707070FFFFFFFFFFFAF
:1046E000FFFBF9F8F0E040000000000000000000CF
:1046F00000000000000000000000000000000000BA
:1047000000000000000000000000000000000000A9
:104710000000000000000000000000000000000099
:104720000000000000010303030303030301010071
:104730000000000000000000000000000038B8F891
:10474000E8F8F8F8F8F8E8F8E8F8E8F80000000009
:10475000000000000000000000000001030303034C
:104760000707030301000000000000000000000034
:104770000000000000000000000000000000000039
:104780000000000000000000000000000000000029
:104790000000000000000000000000000000000019
:1047A0000000000000000000000000000000000009
:1047B00000000000000000000000000000000307EF
:1047C0000F1F1F3F3F3F3F1F1F0B0701000000004F
:1047D00000000000000000000000000000000000D9
:1047E00000000000000000000000000000000000C9
:1047F00000000000000000000000000000000000B9
:1048000000000000000000000000000000000000A8
:104810000000000000000000000000000000000098
:104820000000000000000000000000000000000088
:104830000000000000000000000000000000000078
:104840000000000000000000000000000000000068
:104850000000000000000000000000000000000058
:104860000000000000000000000000000000000048
:104870000000000000000000000000000000000038
:104880000000000000000000000000000000000028
:104890000000000000000000000000000000000018
:1048A0000000000000000000000000000000000008
:1048B000000000000000000000001878F0C00000B8
:1048C00000000000000000000000000080E0F03860
:1048D00000000000000000000000000000000000D8
:1048E00000000000000000000000000000000000C8
:1048F00000000000000000000000000000000000B8
:1049000000000000000000000000000000000000A7
:1049100000000000000000C0C0C0C0C0C0C0C0C0D7
:10492000C0C0C0C080808080808080808080808087
:104930000000000080008000000000000101010074
:104940000000000000000000000000000301000063
:1049500000000080808080808080808080808080D7
:1049600080808080808080C0C0C0C0C0C0C0C0C007
:10497000C0C0C0C000000000000000000000000037
:104980000000000000000000000000000000000027
:1049900000000000000000FF000000000000000018
:1049A000000000000000000000001C3F7F7FFFFFB0
:1049B000FFFFFFFF7F7FFFFF0000000000000000FF
:1049C00000000000000000000000000000000000E7
:1049D0000000FFFF010101010101010101010000CF
:1049E000000000000000183E7F7FFFFFFFFFFFFF79
:1049F0007F7FFFFF000000000000000000000000BB
:104A000000000000000000000000000000000000A6
:104A100000000000000000FF000000000000000097
:104A20000000000000808080808080808080808006
:104A30008080C0C0C0C0FFFF000000000000000078
:104A40000000000000000000000000000000000066
:104A50000000FFFFC0C0C0C0808080808080808058
:104A600080808080800000000000000000000000C6
:104A70000000FFFF00000000000000000000000038
:104A80000000000000000000000000000000000026
:104A900000000000000000030303030303030303FB
:104AA00003030303030301010101010101010101EA
:104AB00001010100000000000000000000000000F3
:104AC00000000000000000000000000000000000E6
:104AD00000000000000000000101010101010101CE
:104AE000010101010303030303030303030303039E
:104AF00003030303000000000000000000000000AA
:104B000000000000000000000000000000000000A5
:104B10000000000000000000000000000000000095
:104B20000000000000000000000000000000000085
:104B30000000000000000000000000000030202005
:104B4000201010080603060C18303020002020002A
:104B50000000000000000000000000000000000055
:104B60000000000000000000000000000000000045
:104B70000000000000000000000000000000000035
:104B80000000000000000000000000000000000025
:104B90000000000000000000000000000000000015
:104BA0000000000000000000000000000000000005
:104BB00000000000000000000000000000000000F5
:104BC00000000000000000000000000000000000E5
:104BD00000000000000000000000000000000000D5
:104BE00000000000000000000000000000000000C5
:104BF00000000000000000000000000000000000B5
:104C000000000000000000000000000000000000A4
:104C10000000000000000000000000000000000094
:104C20000000000000000000000000000000000084
:104C30000000000000000000000000000000000074
:104C40000000000000000000000000000000000064
:104C50000000000000000000000000000000000054
:104C60000000000000000000000000000000000044
:104C70000000000000000000000000000000000034
:104C80000000000000000000000000000000000024
:104C90000000000000000000000000000000000014
:104CA0000000000000000000000000000000000004
:104CB00000000000000E3C784000000000000000F2
:104CC0000000000000000000000000000000407034
:104CD0003C06000000000000000000000000000092
:104CE00000000000000000000000000000000000C4
:104CF00000000000000000000000000000000000B4
:104D000000000000000000000000000000000000A3
:104D10000000000000000000000000000000000093
:104D2000000080C06020B090D8D8F8F8F8F870F093
:104D3000E0E0C080800000000000000000000000F3
:104D40000000000000000000000000000000000063
:104D500000000080C0C0E0E070F0F8F8F8F8D8D8A3
:104D600090306060C0800000000000000000000083
:104D70000000000000000000000000000000000033
:104D80000000000000000000000000000000000023
:104D90000000000000000000000000000000F0FC27
:104DA0000E03E1F8FEFFFFFFFFFFFFC180000000E0
:104DB00080C1E3FFFFFEFCF00000000000000000E7
:104DC0000000000000000000000000000000008063
:104DD000F0FCFFFFFFC1800000008081E3FFFF7F48
:104DE000FFFFFEFCF881030EF8C000000000000089
:104DF00000000000000000000000000000000000B3
:104E000000000000000000000000000000000000A2
:104E100000000000000000000000000000000F7E05
:104E2000E0803FFFFFFFFCFCFCFFFFFFFFFFFFFFF9
:104E3000FFFFFFFFFFFF7F1F0000000000000000DA
:104E4000000000000000000000000000000000035F
:104E50001F7FFFFFFFFFFFFFFFFFFFFFFFFFFEFCC6
:104E6000FEFFFFFFFF1F80F03E0700000000000074
:104E70000000000000000000000000000000000032
:104E80000000000000000000000000000000000022
:104E90000000000000000000000000000000000012
:104EA000000302040D0F1F1F1F3F3F3F3F1F1F1F27
:104EB0000F0F0707030000000000000000000000C3
:104EC00000000000000000000000000000000000E2
:104ED0000000010307070F0F1F1F1F3F3F3F1F1F4A
:104EE0001F1F0B0D06030100000000000000000062
:104EF00000000000000000000000000000000000B2
:104F000000000000000000000000000000000000A1
:104F10000000000000000000000000000000000091
:104F20000000000000000000000000000000000081
:104F3000000000000000000000206040C0406060F1
:104F400020203030302020604040C04060200000F1
:104F50000000000000000000000000000000000051
:104F60000000000000000000000000000000000041
:104F70000000000000000000000000000000000031
:104F80000000000000000000000000000000000021
:104F90000000000000000000000000000000000011
:104FA0000000000000000000000000000000000001
:104FB00000000000000000000000000000000000F1
:104FC00000000000000000000000000000000000E1
:104FD00000000000000000000000000000000000D1
:104FE00000000000000000000000000000000000C1
:104FF00000000000000000000000000000000000B1
:1050000000000000000000000000000000000000A0
:105010000000000000000000000000000000000090
:105020000000000000000000000000000060606060
:10503000E0E0E0C0C0C080000830200000000000B8
:10504000000000000000000020000080C0C0C0C0C0
:10505000E0E0604040400000000000000000000070
:105060000000000000000000000000000000000040
:105070000000000000000000000000000000000030
:105080000000000000000000000000000000000020
:105090000000000000000000000000000000000010
:1050A0000000000000000000000000000000000000
:1050B000000001030B27CF9F3CE000000000000030
:1050C0000000000000000000E0B81F6F371B030362
:1050D00001000000000000000000000000000000CF
:1050E00000000000000000000000000000000000C0
:1050F00000000000000000000000000000000000B0
:10510000000000000000000000000000000000009F
:1051100000000000000000000000000080C0E0600F
:105120003030181808080C0C0C88C8D8F0F0F0E0E3
:10513000C0C080000000000000000000000000006F
:10514000000000000000000000000000000000005F
:1051500000C0C0603030181808080C0C0C88C8F863
:10516000F0F0F0E0C080000000000000000000004F
:10517000000000000000000000000000000000002F
:10518000000000000000000000000000000000001F
:10519000000000000000000000E0F80E0301000025
:1051A000000000000000007CFFFFFFFFFFFFFFFF8B
:1051B000FFFFFFFEFCE00000000000000000000018
:1051C00000000000000000000000000000F07C0E65
:1051D00003010000000000000000007EFFFFFFFF51
:1051E000FFFFFFFFFFFFFFFEFCC00000000000000C
:1051F00000000000000000000000000000000000AF
:10520000000000000000000000000000000000009E
:105210000000000000000000001F7FE08000000090
:105220000000000000000000010307070F0F0F0F30
:105230000F0787E37F0F0000000000000000000060
:10524000000000000000000000000000001FF8C087
:105250000000000000000000000000000107070F30
:105260000F0F0F0F070783E07F0F00000000000003
:10527000000000000000000000000000000000002E
:10528000000000000000000000000000000000001E
:1052900000000000000000000000000103060C18E0
:1052A0001830302060606060606060203030180C22
:1052B0000E070300000000000000000000000000D6
:1052C00000000000000000000000000000000001DD
:1052D00003060C1818303020606060606060202089
:1052E000303018180C060301000000000000000018
:1052F00000000000000000000000000000000000AE
:10530000000000000000000000000000000000009D
:10531000000000000000000000000000000000008D
:10532000000000000000000000000000000000007D
:1053300000000080C0602020202060E0800000008D
:105340000000000080C060202020202060C00000FD
:10535000000000000000000000000000000000004D
:10536000000000000000000000000000000000003D
:10537000000000000000000000000000000000002D
:10538000000000000000000000000000000000001D
:10539000000000000000000000000000000000000D
:1053A00000000000000000000000000000000000FD
:1053B00000000000000000000000000003030604DD
:1053C0000C0C0606030100000000000000000000B5
:1053D00000000000000000000000000000000000CD
:1053E00000000000000000000000000000000000BD
:1053F00000000000000000000000000000000000AD
:1054000000000000B05400083D1B00080000000030
:10541000000000008000000080540008411C0008CB
:105420000000000000000000800000008C54000814
:10543000AD1D00080000000000000000800000001A
:1054400098540008651E00080000000000000000DD
:1054500080000000A4540008E11E000800000000C5
:1054600000000000800000000000000000000000BC
:1054700001020304060708090000000001020304FA
:105480006D795461736B3032000000006D795461A6
:10549000736B3033000000006D795461736B3034EE
:1054A000000000006D795461736B3035000000001E
:1054B00064656661756C745461736B00DC5400083C
:1054C00000000020A4000000CA2200088055000847
:1054D000A4000020242E0000DA2200080101001997
:1054E00034070001000000008403000000000000F9
:1054F00000000000000000000000000000000000AC
:10550000000000000000000000000000000000009B
:105510000100000010000000000000000024F40062
:10552000000000000000000000000000000000007B
:10553000000000000000000000000000000000006B
:10554000000000000000000000000000000000005B
:10555000000000000000000000000000000000004B
:10556000000000000000000000000000000000003B
:105570000000000000000000AAAAAAAA0000000083
:04000005080000ED02
:00000001FF
